{
  "transactions": [
    {
      "hash": "0xe050b5854bc1ffc11c2065686fea4723b76d8feec2a63ffba828b8ab92fd579d",
      "transactionType": "CREATE",
      "contractName": "SecurityToken",
      "contractAddress": "0x10e556a853fddb8ed2935e527e8c95e125ef767f",
      "function": null,
      "arguments": [
        "Security Token",
        "SEC",
        "1000000000000000000000000"
      ],
      "transaction": {
        "from": "0x55d0e31b1dba47cc89db7a8dd08bbb74e94a3245",
        "gas": "0x1053d4",
        "value": "0x0",
        "input": "0x608060405234801562000010575f80fd5b506040516200108e3803806200108e83398101604081905262000033916200032d565b338383600362000044838262000427565b50600462000053828262000427565b5050506001600160a01b0381166200008557604051631e4fbdf760e01b81525f60048201526024015b60405180910390fd5b6200009081620000b3565b506005805460ff60a01b19169055620000aa338262000104565b50505062000515565b600580546001600160a01b038381166001600160a01b0319831681179093556040519116919082907f8be0079c531659141344cd1fd0a4f28419497f9722a3daafe3b4186f6b6457e0905f90a35050565b6001600160a01b0382166200012f5760405163ec442f0560e01b81525f60048201526024016200007c565b6200013c5f838362000140565b5050565b6001600160a01b0383166200016e578060025f828254620001629190620004ef565b90915550620001e09050565b6001600160a01b0383165f9081526020819052604090205481811015620001c25760405163391434e360e21b81526001600160a01b038516600482015260248101829052604481018390526064016200007c565b6001600160a01b0384165f9081526020819052604090209082900390555b6001600160a01b038216620001fe576002805482900390556200021c565b6001600160a01b0382165f9081526020819052604090208054820190555b816001600160a01b0316836001600160a01b03167fddf252ad1be2c89b69c2b068fc378daa952ba7f163c4a11628f55a4df523b3ef836040516200026291815260200190565b60405180910390a3505050565b634e487b7160e01b5f52604160045260245ffd5b5f82601f83011262000293575f80fd5b81516001600160401b0380821115620002b057620002b06200026f565b604051601f8301601f19908116603f01168101908282118183101715620002db57620002db6200026f565b81604052838152602092508683858801011115620002f7575f80fd5b5f91505b838210156200031a5785820183015181830184015290820190620002fb565b5f93810190920192909252949350505050565b5f805f6060848603121562000340575f80fd5b83516001600160401b038082111562000357575f80fd5b620003658783880162000283565b945060208601519150808211156200037b575f80fd5b506200038a8682870162000283565b925050604084015190509250925092565b600181811c90821680620003b057607f821691505b602082108103620003cf57634e487b7160e01b5f52602260045260245ffd5b50919050565b601f82111562000422575f81815260208120601f850160051c81016020861015620003fd5750805b601f850160051c820191505b818110156200041e5782815560010162000409565b5050505b505050565b81516001600160401b038111156200044357620004436200026f565b6200045b816200045484546200039b565b84620003d5565b602080601f83116001811462000491575f8415620004795750858301515b5f19600386901b1c1916600185901b1785556200041e565b5f85815260208120601f198616915b82811015620004c157888601518255948401946001909101908401620004a0565b5085821015620004df57878501515f19600388901b60f8161c191681555b5050505050600190811b01905550565b808201808211156200050f57634e487b7160e01b5f52601160045260245ffd5b92915050565b610b6b80620005235f395ff3fe608060405234801561000f575f80fd5b5060043610610111575f3560e01c80638456cb591161009e5780639b19251a1161006e5780639b19251a14610214578063a9059cbb14610236578063dd62ed3e14610249578063e43252d714610281578063f2fde38b14610294575f80fd5b80638456cb59146101d65780638ab1d681146101de5780638da5cb5b146101f157806395d89b411461020c575f80fd5b8063313ce567116100e4578063313ce5671461017b5780633f4ba83a1461018a5780635c975abb1461019457806370a08231146101a6578063715018a6146101ce575f80fd5b806306fdde0314610115578063095ea7b31461013357806318160ddd1461015657806323b872dd14610168575b5f80fd5b61011d6102a7565b60405161012a91906109cd565b60405180910390f35b610146610141366004610a33565b610337565b604051901515815260200161012a565b6002545b60405190815260200161012a565b610146610176366004610a5b565b610350565b6040516012815260200161012a565b6101926103f1565b005b600554600160a01b900460ff16610146565b61015a6101b4366004610a94565b6001600160a01b03165f9081526020819052604090205490565b610192610403565b610192610414565b6101926101ec366004610a94565b610424565b6005546040516001600160a01b03909116815260200161012a565b61011d61044c565b610146610222366004610a94565b60066020525f908152604090205460ff1681565b610146610244366004610a33565b61045b565b61015a610257366004610aad565b6001600160a01b039182165f90815260016020908152604080832093909416825291909152205490565b61019261028f366004610a94565b6104ec565b6101926102a2366004610a94565b610517565b6060600380546102b690610ade565b80601f01602080910402602001604051908101604052809291908181526020018280546102e290610ade565b801561032d5780601f106103045761010080835404028352916020019161032d565b820191905f5260205f20905b81548152906001019060200180831161031057829003601f168201915b5050505050905090565b5f33610344818585610554565b60019150505b92915050565b5f610359610566565b6001600160a01b0384165f9081526006602052604090205460ff16801561039757506001600160a01b0383165f9081526006602052604090205460ff165b6103de5760405162461bcd60e51b8152602060048201526013602482015272151c985b9cd9995c881c995cdd1c9a58dd1959606a1b60448201526064015b60405180910390fd5b6103e9848484610591565b949350505050565b6103f96105b4565b6104016105e1565b565b61040b6105b4565b6104015f610636565b61041c6105b4565b610401610687565b61042c6105b4565b6001600160a01b03165f908152600660205260409020805460ff19169055565b6060600480546102b690610ade565b5f610464610566565b335f9081526006602052604090205460ff16801561049957506001600160a01b0383165f9081526006602052604090205460ff165b6104db5760405162461bcd60e51b8152602060048201526013602482015272151c985b9cd9995c881c995cdd1c9a58dd1959606a1b60448201526064016103d5565b6104e583836106ca565b9392505050565b6104f46105b4565b6001600160a01b03165f908152600660205260409020805460ff19166001179055565b61051f6105b4565b6001600160a01b03811661054857604051631e4fbdf760e01b81525f60048201526024016103d5565b61055181610636565b50565b61056183838360016106d7565b505050565b600554600160a01b900460ff16156104015760405163d93c066560e01b815260040160405180910390fd5b5f3361059e8582856107aa565b6105a9858585610820565b506001949350505050565b6005546001600160a01b031633146104015760405163118cdaa760e01b81523360048201526024016103d5565b6105e961087d565b6005805460ff60a01b191690557f5db9ee0a495bf2e6ff9c91a7834c1ba4fdd244a5e8aa4e537bd38aeae4b073aa335b6040516001600160a01b03909116815260200160405180910390a1565b600580546001600160a01b038381166001600160a01b0319831681179093556040519116919082907f8be0079c531659141344cd1fd0a4f28419497f9722a3daafe3b4186f6b6457e0905f90a35050565b61068f610566565b6005805460ff60a01b1916600160a01b1790557f62e78cea01bee320cd4e420270b5ea74000d11b0c9f74754ebdbfc544b05a2586106193390565b5f33610344818585610820565b6001600160a01b0384166107005760405163e602df0560e01b81525f60048201526024016103d5565b6001600160a01b03831661072957604051634a1406b160e11b81525f60048201526024016103d5565b6001600160a01b038085165f90815260016020908152604080832093871683529290522082905580156107a457826001600160a01b0316846001600160a01b03167f8c5be1e5ebec7d5bd14f71427d1e84f3dd0314c0f7b2291e5b200ac8c7c3b9258460405161079b91815260200190565b60405180910390a35b50505050565b6001600160a01b038381165f908152600160209081526040808320938616835292905220545f198110156107a4578181101561081257604051637dc7a0d960e11b81526001600160a01b038416600482015260248101829052604481018390526064016103d5565b6107a484848484035f6106d7565b6001600160a01b03831661084957604051634b637e8f60e11b81525f60048201526024016103d5565b6001600160a01b0382166108725760405163ec442f0560e01b81525f60048201526024016103d5565b6105618383836108a7565b600554600160a01b900460ff1661040157604051638dfc202b60e01b815260040160405180910390fd5b6001600160a01b0383166108d1578060025f8282546108c69190610b16565b909155506109419050565b6001600160a01b0383165f90815260208190526040902054818110156109235760405163391434e360e21b81526001600160a01b038516600482015260248101829052604481018390526064016103d5565b6001600160a01b0384165f9081526020819052604090209082900390555b6001600160a01b03821661095d5760028054829003905561097b565b6001600160a01b0382165f9081526020819052604090208054820190555b816001600160a01b0316836001600160a01b03167fddf252ad1be2c89b69c2b068fc378daa952ba7f163c4a11628f55a4df523b3ef836040516109c091815260200190565b60405180910390a3505050565b5f6020808352835180828501525f5b818110156109f8578581018301518582016040015282016109dc565b505f604082860101526040601f19601f8301168501019250505092915050565b80356001600160a01b0381168114610a2e575f80fd5b919050565b5f8060408385031215610a44575f80fd5b610a4d83610a18565b946020939093013593505050565b5f805f60608486031215610a6d575f80fd5b610a7684610a18565b9250610a8460208501610a18565b9150604084013590509250925092565b5f60208284031215610aa4575f80fd5b6104e582610a18565b5f8060408385031215610abe575f80fd5b610ac783610a18565b9150610ad560208401610a18565b90509250929050565b600181811c90821680610af257607f821691505b602082108103610b1057634e487b7160e01b5f52602260045260245ffd5b50919050565b8082018082111561034a57634e487b7160e01b5f52601160045260245ffdfea26469706673582212201f57cb60b8dea4d1e37752f954d428e82b4ccdbfa6da20ce99becc8f06cbbbd864736f6c63430008140033000000000000000000000000000000000000000000000000000000000000006000000000000000000000000000000000000000000000000000000000000000a000000000000000000000000000000000000000000000d3c21bcecceda1000000000000000000000000000000000000000000000000000000000000000000000e536563757269747920546f6b656e00000000000000000000000000000000000000000000000000000000000000000000000000000000000000000000000000035345430000000000000000000000000000000000000000000000000000000000",
        "nonce": "0x13",
        "chainId": "0xaa36a7"
      },
      "additionalContracts": [],
      "isFixedGasLimit": false
    },
    {
      "hash": "0x573a30c898ac9cdda18cc5dd99f04afded38ac04e1e5ee3ea767a479cb763f85",
      "transactionType": "CREATE",
      "contractName": "STOCrowdsale",
      "contractAddress": "0x47c9f616847c96426a68122c40f548953c2b03cc",
      "function": null,
      "arguments": [
        "100",
        "100000000000000000",
        "10000000000000000000",
        "604800",
        "0x10e556A853FDDB8ED2935e527E8c95e125EF767F"
      ],
      "transaction": {
        "from": "0x55d0e31b1dba47cc89db7a8dd08bbb74e94a3245",
        "gas": "0xa99b5",
        "value": "0x0",
        "input": "0x608060405234801561000f575f80fd5b5060405161078738038061078783398101604081905261002e91610148565b60015f55338061005857604051631e4fbdf760e01b81525f60048201526024015b60405180910390fd5b610061816100f7565b505f85116100b15760405162461bcd60e51b815260206004820152601b60248201527f52617465206d7573742062652067726561746572207468616e20300000000000604482015260640161004f565b6003859055600484905560058390556100ca824261019e565b600655600280546001600160a01b0319166001600160a01b0392909216919091179055506101c392505050565b600180546001600160a01b038381166001600160a01b0319831681179093556040519116919082907f8be0079c531659141344cd1fd0a4f28419497f9722a3daafe3b4186f6b6457e0905f90a35050565b5f805f805f60a0868803121561015c575f80fd5b855160208701516040880151606089015160808a0151939850919650945092506001600160a01b0381168114610190575f80fd5b809150509295509295909350565b808201808211156101bd57634e487b7160e01b5f52601160045260245ffd5b92915050565b6105b7806101d05f395ff3fe608060405260043610610099575f3560e01c80638ac2c680116100625780638ac2c680146101195780638da5cb5b1461012e57806396b988621461015f578063e8b5e51f1461018a578063f2fde38b14610192578063fc0c546a146101b1575f80fd5b80622e13161461009d57806324600fc3146100c55780632c4e722e146100db5780633197cbb6146100f0578063715018a614610105575b5f80fd5b3480156100a8575f80fd5b506100b260055481565b6040519081526020015b60405180910390f35b3480156100d0575f80fd5b506100d96101d0565b005b3480156100e6575f80fd5b506100b260035481565b3480156100fb575f80fd5b506100b260065481565b348015610110575f80fd5b506100d9610211565b348015610124575f80fd5b506100b260045481565b348015610139575f80fd5b506001546001600160a01b03165b6040516001600160a01b0390911681526020016100bc565b34801561016a575f80fd5b506100b26101793660046104f1565b60076020525f908152604090205481565b6100d9610224565b34801561019d575f80fd5b506100d96101ac3660046104f1565b610411565b3480156101bc575f80fd5b50600254610147906001600160a01b031681565b6101d861044b565b6001546040516001600160a01b03909116904780156108fc02915f818181858888f1935050505015801561020e573d5f803e3d5ffd5b50565b61021961044b565b6102225f610478565b565b61022c6104c9565b6006544211156102755760405162461bcd60e51b815260206004820152600f60248201526e10dc9bddd91cd85b1948195b991959608a1b60448201526064015b60405180910390fd5b6004543410156102be5760405162461bcd60e51b8152602060048201526014602482015273125b9d995cdd1b595b9d081d1bdbc81cdb585b1b60621b604482015260640161026c565b600554335f908152600760205260409020546102db903490610532565b11156103225760405162461bcd60e51b8152602060048201526016602482015275125b9d995cdd1b595b9d0818d85c081c995858da195960521b604482015260640161026c565b5f60035434610331919061054b565b335f90815260076020526040812080549293503492909190610354908490610532565b909155505060025460405163a9059cbb60e01b8152336004820152602481018390526001600160a01b039091169063a9059cbb906044016020604051808303815f875af11580156103a7573d5f803e3d5ffd5b505050506040513d601f19601f820116820180604052508101906103cb9190610562565b50604080513481526020810183905233917f8fafebcaf9d154343dad25669bfa277f4fbacd7ac6b0c4fed522580e040a0f33910160405180910390a25061022260015f55565b61041961044b565b6001600160a01b03811661044257604051631e4fbdf760e01b81525f600482015260240161026c565b61020e81610478565b6001546001600160a01b031633146102225760405163118cdaa760e01b815233600482015260240161026c565b600180546001600160a01b038381166001600160a01b0319831681179093556040519116919082907f8be0079c531659141344cd1fd0a4f28419497f9722a3daafe3b4186f6b6457e0905f90a35050565b60025f54036104eb57604051633ee5aeb560e01b815260040160405180910390fd5b60025f55565b5f60208284031215610501575f80fd5b81356001600160a01b0381168114610517575f80fd5b9392505050565b634e487b7160e01b5f52601160045260245ffd5b808201808211156105455761054561051e565b92915050565b80820281158282048414176105455761054561051e565b5f60208284031215610572575f80fd5b81518015158114610517575f80fdfea26469706673582212201713847b55708ede92f62cd586d907eaf51095f48bd2c15fc7a003037d83774464736f6c634300081400330000000000000000000000000000000000000000000000000000000000000064000000000000000000000000000000000000000000000000016345785d8a00000000000000000000000000000000000000000000000000008ac7230489e800000000000000000000000000000000000000000000000000000000000000093a8000000000000000000000000010e556a853fddb8ed2935e527e8c95e125ef767f",
        "nonce": "0x14",
        "chainId": "0xaa36a7"
      },
      "additionalContracts": [],
      "isFixedGasLimit": false
    },
    {
      "hash": "0x91ff23f3ff0e60541dfa760bc01e27a5b23bada0512e18d696b2d4db6a3a2074",
      "transactionType": "CALL",
      "contractName": "SecurityToken",
      "contractAddress": "0x10e556a853fddb8ed2935e527e8c95e125ef767f",
      "function": "addToWhitelist(address)",
      "arguments": [
        "0x47C9F616847c96426A68122C40f548953C2B03Cc"
      ],
      "transaction": {
        "from": "0x55d0e31b1dba47cc89db7a8dd08bbb74e94a3245",
        "to": "0x10e556a853fddb8ed2935e527e8c95e125ef767f",
        "gas": "0xf938",
        "value": "0x0",
        "input": "0xe43252d700000000000000000000000047c9f616847c96426a68122c40f548953c2b03cc",
        "nonce": "0x15",
        "chainId": "0xaa36a7"
      },
      "additionalContracts": [],
      "isFixedGasLimit": false
    },
    {
      "hash": "0x059682072dd88697dd5ecacdc598c736eb350e085d5d240ae9ec9d4b3129b56c",
      "transactionType": "CALL",
      "contractName": "SecurityToken",
      "contractAddress": "0x10e556a853fddb8ed2935e527e8c95e125ef767f",
      "function": "addToWhitelist(address)",
      "arguments": [
        "0x55d0E31B1DBA47CC89Db7A8dd08bbB74E94a3245"
      ],
      "transaction": {
        "from": "0x55d0e31b1dba47cc89db7a8dd08bbb74e94a3245",
        "to": "0x10e556a853fddb8ed2935e527e8c95e125ef767f",
        "gas": "0xf938",
        "value": "0x0",
        "input": "0xe43252d700000000000000000000000055d0e31b1dba47cc89db7a8dd08bbb74e94a3245",
        "nonce": "0x16",
        "chainId": "0xaa36a7"
      },
      "additionalContracts": [],
      "isFixedGasLimit": false
    },
    {
      "hash": "0x173c9f1dec1fc50ab60b6f98f34657a871f66813978313091910f5f4f8ee17fd",
      "transactionType": "CALL",
      "contractName": "SecurityToken",
      "contractAddress": "0x10e556a853fddb8ed2935e527e8c95e125ef767f",
      "function": "transfer(address,uint256)",
      "arguments": [
        "0x47C9F616847c96426A68122C40f548953C2B03Cc",
        "500000000000000000000000"
      ],
      "transaction": {
        "from": "0x55d0e31b1dba47cc89db7a8dd08bbb74e94a3245",
        "to": "0x10e556a853fddb8ed2935e527e8c95e125ef767f",
        "gas": "0x14cae",
        "value": "0x0",
        "input": "0xa9059cbb00000000000000000000000047c9f616847c96426a68122c40f548953c2b03cc0000000000000000000000000000000000000000000069e10de76676d0800000",
        "nonce": "0x17",
        "chainId": "0xaa36a7"
      },
      "additionalContracts": [],
      "isFixedGasLimit": false
    }
  ],
  "receipts": [
    {
      "status": "0x1",
      "cumulativeGasUsed": "0x125a673",
      "logs": [
        {
          "address": "0x10e556a853fddb8ed2935e527e8c95e125ef767f",
          "topics": [
            "0x8be0079c531659141344cd1fd0a4f28419497f9722a3daafe3b4186f6b6457e0",
            "0x0000000000000000000000000000000000000000000000000000000000000000",
            "0x00000000000000000000000055d0e31b1dba47cc89db7a8dd08bbb74e94a3245"
          ],
          "data": "0x",
          "blockHash": "0xe5981725f1578837fc8c27017c04c8c649081dc3bcd042ddb8ffa7ed7fdb75c8",
          "blockNumber": "0x75ed41",
          "transactionHash": "0xe050b5854bc1ffc11c2065686fea4723b76d8feec2a63ffba828b8ab92fd579d",
          "transactionIndex": "0x82",
          "logIndex": "0xfb",
          "removed": false
        },
        {
          "address": "0x10e556a853fddb8ed2935e527e8c95e125ef767f",
          "topics": [
            "0xddf252ad1be2c89b69c2b068fc378daa952ba7f163c4a11628f55a4df523b3ef",
            "0x0000000000000000000000000000000000000000000000000000000000000000",
            "0x00000000000000000000000055d0e31b1dba47cc89db7a8dd08bbb74e94a3245"
          ],
          "data": "0x00000000000000000000000000000000000000000000d3c21bcecceda1000000",
          "blockHash": "0xe5981725f1578837fc8c27017c04c8c649081dc3bcd042ddb8ffa7ed7fdb75c8",
          "blockNumber": "0x75ed41",
          "transactionHash": "0xe050b5854bc1ffc11c2065686fea4723b76d8feec2a63ffba828b8ab92fd579d",
          "transactionIndex": "0x82",
          "logIndex": "0xfc",
          "removed": false
        }
      ],
      "logsBloom": "0x00000000000000000000000000000000000000000000000000800000000000000000000000000000000000000000000000000000000000000000000000000000000002000000000000000008000000000001000000000000000000000000000000000000020000000000000000000800000000000000000000000010000000400000000000000000000000000000000000000000000000008000000000000000000000000000000000000000000000000000000000000000000000000000000000000002000000080000000200000000000000000000000000000000000020000000000000000000000000000000000000000000040080000000000000000000",
      "type": "0x2",
      "transactionHash": "0xe050b5854bc1ffc11c2065686fea4723b76d8feec2a63ffba828b8ab92fd579d",
      "transactionIndex": "0x82",
      "blockHash": "0xe5981725f1578837fc8c27017c04c8c649081dc3bcd042ddb8ffa7ed7fdb75c8",
      "blockNumber": "0x75ed41",
      "gasUsed": "0xc8f41",
      "effectiveGasPrice": "0x3f2029cd",
      "from": "0x55d0e31b1dba47cc89db7a8dd08bbb74e94a3245",
      "to": null,
      "contractAddress": "0x10e556a853fddb8ed2935e527e8c95e125ef767f"
    },
    {
      "status": "0x1",
      "cumulativeGasUsed": "0x12ed3b7",
      "logs": [
        {
          "address": "0x47c9f616847c96426a68122c40f548953c2b03cc",
          "topics": [
            "0x8be0079c531659141344cd1fd0a4f28419497f9722a3daafe3b4186f6b6457e0",
            "0x0000000000000000000000000000000000000000000000000000000000000000",
            "0x00000000000000000000000055d0e31b1dba47cc89db7a8dd08bbb74e94a3245"
          ],
          "data": "0x",
          "blockHash": "0xe5981725f1578837fc8c27017c04c8c649081dc3bcd042ddb8ffa7ed7fdb75c8",
          "blockNumber": "0x75ed41",
          "transactionHash": "0x573a30c898ac9cdda18cc5dd99f04afded38ac04e1e5ee3ea767a479cb763f85",
          "transactionIndex": "0x85",
          "logIndex": "0xfe",
          "removed": false
        }
      ],
      "logsBloom": "0x00000000000000000000000000000000000000000000000000800100000000000000000000000000000000000000000000000000000000000000000000000000000002000000000000000000000000000001000000000000000000000000000000000000820002000000000000000800000000000000000000000000000000400000000000000000000000000000000000000000000000000000000000000000000000000000000000000000000000000000000000000000000000000000000000000000000000080000000200000000000000000000000000000000000020000000000000000000000000000000000000000000000000000000000000000000",
      "type": "0x2",
      "transactionHash": "0x573a30c898ac9cdda18cc5dd99f04afded38ac04e1e5ee3ea767a479cb763f85",
      "transactionIndex": "0x85",
      "blockHash": "0xe5981725f1578837fc8c27017c04c8c649081dc3bcd042ddb8ffa7ed7fdb75c8",
      "blockNumber": "0x75ed41",
      "gasUsed": "0x82778",
      "effectiveGasPrice": "0x3f2029cd",
      "from": "0x55d0e31b1dba47cc89db7a8dd08bbb74e94a3245",
      "to": null,
      "contractAddress": "0x47c9f616847c96426a68122c40f548953c2b03cc"
    },
    {
      "status": "0x1",
      "cumulativeGasUsed": "0x12f8826",
      "logs": [],
      "logsBloom": "0x00000000000000000000000000000000000000000000000000000000000000000000000000000000000000000000000000000000000000000000000000000000000000000000000000000000000000000000000000000000000000000000000000000000000000000000000000000000000000000000000000000000000000000000000000000000000000000000000000000000000000000000000000000000000000000000000000000000000000000000000000000000000000000000000000000000000000000000000000000000000000000000000000000000000000000000000000000000000000000000000000000000000000000000000000000000",
      "type": "0x2",
      "transactionHash": "0x91ff23f3ff0e60541dfa760bc01e27a5b23bada0512e18d696b2d4db6a3a2074",
      "transactionIndex": "0x86",
      "blockHash": "0xe5981725f1578837fc8c27017c04c8c649081dc3bcd042ddb8ffa7ed7fdb75c8",
      "blockNumber": "0x75ed41",
      "gasUsed": "0xb46f",
      "effectiveGasPrice": "0x3f2029cd",
      "from": "0x55d0e31b1dba47cc89db7a8dd08bbb74e94a3245",
      "to": "0x10e556a853fddb8ed2935e527e8c95e125ef767f",
      "contractAddress": null
    },
    {
      "status": "0x1",
      "cumulativeGasUsed": "0x12ed864",
      "logs": [],
      "logsBloom": "0x00000000000000000000000000000000000000000000000000000000000000000000000000000000000000000000000000000000000000000000000000000000000000000000000000000000000000000000000000000000000000000000000000000000000000000000000000000000000000000000000000000000000000000000000000000000000000000000000000000000000000000000000000000000000000000000000000000000000000000000000000000000000000000000000000000000000000000000000000000000000000000000000000000000000000000000000000000000000000000000000000000000000000000000000000000000",
      "type": "0x2",
      "transactionHash": "0x059682072dd88697dd5ecacdc598c736eb350e085d5d240ae9ec9d4b3129b56c",
      "transactionIndex": "0xab",
      "blockHash": "0x8010a92e0aee2b33bd986b110491515558274038073a5cbac8a3c37dae48d040",
      "blockNumber": "0x75ed42",
      "gasUsed": "0xb46f",
      "effectiveGasPrice": "0x408d7a77",
      "from": "0x55d0e31b1dba47cc89db7a8dd08bbb74e94a3245",
      "to": "0x10e556a853fddb8ed2935e527e8c95e125ef767f",
      "contractAddress": null
    },
    {
      "status": "0x1",
      "cumulativeGasUsed": "0x12fbbde",
      "logs": [
        {
          "address": "0x10e556a853fddb8ed2935e527e8c95e125ef767f",
          "topics": [
            "0xddf252ad1be2c89b69c2b068fc378daa952ba7f163c4a11628f55a4df523b3ef",
            "0x00000000000000000000000055d0e31b1dba47cc89db7a8dd08bbb74e94a3245",
            "0x00000000000000000000000047c9f616847c96426a68122c40f548953c2b03cc"
          ],
          "data": "0x0000000000000000000000000000000000000000000069e10de76676d0800000",
          "blockHash": "0x8010a92e0aee2b33bd986b110491515558274038073a5cbac8a3c37dae48d040",
          "blockNumber": "0x75ed42",
          "transactionHash": "0x173c9f1dec1fc50ab60b6f98f34657a871f66813978313091910f5f4f8ee17fd",
          "transactionIndex": "0xac",
          "logIndex": "0xe9",
          "removed": false
        }
      ],
      "logsBloom": "0x00000000000000000000000000000000000000008000000000000000000000000000000000000000000000000000000000000000000000000000000000000000000002000000000000000008000000000000000000000000000000000000000000000000000000000000000000000000000000000000040000000010000000000000000000000000000000000000000000000000000000008000000000000000000000000000000000000000000000000000000000000000000000000000000000000002000100080000000200000000000000000000000000000000000000000000000000000000000000000000000000000000040080000000000000000000",
      "type": "0x2",
      "transactionHash": "0x173c9f1dec1fc50ab60b6f98f34657a871f66813978313091910f5f4f8ee17fd",
      "transactionIndex": "0xac",
      "blockHash": "0x8010a92e0aee2b33bd986b110491515558274038073a5cbac8a3c37dae48d040",
      "blockNumber": "0x75ed42",
      "gasUsed": "0xe37a",
      "effectiveGasPrice": "0x408d7a77",
      "from": "0x55d0e31b1dba47cc89db7a8dd08bbb74e94a3245",
      "to": "0x10e556a853fddb8ed2935e527e8c95e125ef767f",
      "contractAddress": null
    }
  ],
  "libraries": [],
  "pending": [],
  "returns": {},
  "timestamp": 1739814947,
  "chain": 11155111,
  "commit": "a06568d"
}